{
  "_format": "hh-sol-artifact-1",
  "contractName": "TransferTokens",
  "sourceName": "contracts/Transfer.sol",
  "abi": [
    {
      "anonymous": false,
      "inputs": [
        {
          "indexed": false,
          "internalType": "address",
          "name": "sender",
          "type": "address"
        },
        {
          "indexed": false,
          "internalType": "address",
          "name": "receiver",
          "type": "address"
        },
        {
          "indexed": false,
          "internalType": "uint256",
          "name": "amount",
          "type": "uint256"
        },
        {
          "indexed": false,
          "internalType": "uint256",
          "name": "timestamp",
          "type": "uint256"
        }
      ],
      "name": "Transfer",
      "type": "event"
    },
    {
      "inputs": [
        {
          "internalType": "address payable",
          "name": "receiver",
          "type": "address"
        },
        {
          "internalType": "uint256",
          "name": "amount",
          "type": "uint256"
        }
      ],
      "name": "publishTransaction",
      "outputs": [],
      "stateMutability": "nonpayable",
      "type": "function"
    }
  ],
  "bytecode": "0x608060405234801561001057600080fd5b5061026f806100206000396000f3fe608060405234801561001057600080fd5b506004361061002a5760003560e01c8062bdae781461002f575b600080fd5b61004960048036038101906100449190610125565b61004b565b005b7f9ed053bb818ff08b8353cd46f78db1f0799f31c9e4458fdb425c10eccd2efc443383834260405161008094939291906101f4565b60405180910390a15050565b600080fd5b600073ffffffffffffffffffffffffffffffffffffffff82169050919050565b60006100bc82610091565b9050919050565b6100cc816100b1565b81146100d757600080fd5b50565b6000813590506100e9816100c3565b92915050565b6000819050919050565b610102816100ef565b811461010d57600080fd5b50565b60008135905061011f816100f9565b92915050565b6000806040838503121561013c5761013b61008c565b5b600061014a858286016100da565b925050602061015b85828601610110565b9150509250929050565b600061017082610091565b9050919050565b61018081610165565b82525050565b6000819050919050565b60006101ab6101a66101a184610091565b610186565b610091565b9050919050565b60006101bd82610190565b9050919050565b60006101cf826101b2565b9050919050565b6101df816101c4565b82525050565b6101ee816100ef565b82525050565b60006080820190506102096000830187610177565b61021660208301866101d6565b61022360408301856101e5565b61023060608301846101e5565b9594505050505056fea2646970667358221220386a7fabf74a8d05bfdb28ef350777192b1094e266c60c9603996cf04e24bb7364736f6c63430008110033",
  "linkReferences": {},
  "deployedLinkReferences": {}
}